:020000040800F2
:1000000000280020A1170008591500085F150008F6
:10001000651500086B150008711500080000000048
:10002000000000000000000000000000771500083C
:1000300083150008000000008F1500089B150008BC
:10004000E9170008E9170008E9170008E917000890
:10005000E9170008E9170008E9170008E917000880
:10006000E9170008E9170008E9170008E917000870
:10007000E9170008E9170008E9170008E917000860
:10008000E9170008E9170008E9170008E917000850
:10009000E9170008E9170008E9170008E917000840
:1000A000E9170008E9170008E9170008E917000830
:1000B000A9150008E917000800000000E91700086A
:1000C000E91700080000000000000000E917000820
:1000D00000000000E9170008E91700080000000010
:1000E000E9170008E9170008E917000800000000F8
:1000F0000000000000000000000000000000000000
:0C01000000000000000000005FF808F1A3
:10010C0010B5054C237833B9044B13B10448AFF345
:10011C0000800123237010BD90000020000000001F
:10012C00182E000808B5034B1BB103490348AFF365
:10013C00008008BD0000000094000020182E00086C
:10014C0080B400AF064B1B68012B04D1044B00227A
:10015C001A60012300E000231846BD4680BC70479E
:10016C00B400002080B400AF064B1B68012B04D1F7
:10017C00044B00221A60012300E000231846BD4600
:10018C0080BC7047B800002080B400AF064B1B68E1
:10019C00012B04D1044B00221A60012300E0002340
:1001AC001846BD4680BC7047BC00002080B500AF2F
:1001BC001F4B1B681F4A13601F4B1B681C4A1360A4
:1001CC004FF400511D4801F0F5FD03461A461A4B39
:1001DC001A60184B1A68164B1B689A4225D1144B9F
:1001EC001A68154B1B689A421FD1154B1A68124B93
:1001FC001B689A420DD0104B1B68114A13600E4BB2
:10020C001B68002B11D100F0BBF80E4BC8221A60F2
:10021C000BE00C4B1B68013B0A4A1360094B1B6833
:10022C00002B02DC064B01221A6000BF80BD00BF10
:10023C0004000020000000200800002000100140F5
:10024C000C0000203000002080B500AF1F4B1B6855
:10025C001F4A13601F4B1B681C4A13604FF48041EC
:10026C001D4801F0A7FD03461A461A4B1A60184B9D
:10027C001A68164B1B689A4225D1144B1A68154BF9
:10028C001B689A421FD1154B1A68124B1B689A4275
:10029C000DD0104B1B68114A13600E4B1B68002BC2
:1002AC0011D100F079F80E4BC8221A600BE00C4B00
:1002BC001B68013B0A4A1360094B1B68002B02DCCC
:1002CC00064B01221A6000BF80BD00BF1400002045
:1002DC001000002018000020001001401C0000201D
:1002EC003400002080B500AF1F4B1B681F4A136001
:1002FC001F4B1B681C4A13604FF400411D4801F052
:10030C0059FD03461A461A4B1A60184B1A68164BBD
:10031C001B689A4225D1144B1A68154B1B689A42DC
:10032C001FD1154B1A68124B1B689A420DD0104BFB
:10033C001B68114A13600E4B1B68002B11D100F087
:10034C0037F80E4BC8221A600BE00C4B1B68013BB4
:10035C000A4A1360094B1B68002B02DC064B012276
:10036C001A6000BF80BD00BF2400002020000020C8
:10037C0028000020001001402C0000203800002034
:10038C0080B400AF034B01221A6000BFBD4680BC95
:10039C00704700BFB400002080B400AF034B0122B3
:1003AC001A6000BFBD4680BC704700BFB80000207B
:1003BC0080B400AF034B01221A6000BFBD4680BC65
:1003CC00704700BFBC00002080B500AF6B4B1B68B2
:1003DC00182B40F0D0806A4B1B68133B042B00F2A7
:1003EC00A28001A252F823F0090400082704000897
:1003FC0069040008B9040008F9040008614B1B6883
:10040C00614A1360614B1B68614A13605C4B142298
:10041C001A60142001F0D2F88EE05E4B1B68012BA1
:10042C0040F08380642000F0B1FF594B1B68002B17
:10043C0009DC594B1B68564A1360514B15221A6044
:10044C00152001F0BBF8504B1B68013B4E4A136062
:10045C004F4B1B68013B4E4A136066E04D4B1B68CB
:10046C00012B64D1642000F091FF474B1B68002BDB
:10047C0011DC474B1B68002B0DDC484B1B68424AB8
:10048C001360474B1B68424A13603D4B16221A609F
:10049C00162001F093F83C4B1B68013B3A4A136061
:1004AC003B4B1B68013B3A4A136040E0394B1B68DD
:1004BC00012B3ED1642000F069FF334B1B68002BED
:1004CC0009DC384B1B68304A13602D4B17221A601D
:1004DC00172001F073F82C4B1B68013B2A4A136060
:1004EC002B4B1B68013B2A4A136022E0294B1B68EB
:1004FC00012B20D1642000F049FF234B1B68002BFB
:10050C0006DC234B1B68002B02DC1D4B13221A60EC
:10051C001D4B1B68013B1C4A13601D4B1B68013BA8
:10052C001B4A136007E000BF06E000BF04E000BFF9
:10053C0002E000BF00E000BF1B4B1B68012B18D171
:10054C00322000F037FF194B1B68012B02DD174BD3
:10055C0000221A60154B1B68184600F0C1FC134BA7
:10056C001B68184600F0F4FC104B1B6801330F4A53
:10057C00136000F025FD00BF80BD00BF58000020B7
:10058C003C0000205C000020AC000020700000202B
:10059C00B0000020C4000020680000206C00002087
:1005AC006000002064000020CC000020C00000206F
:1005BC0080B500AF904B1B68183B032B00F2F18009
:1005CC0001A252F823F000BFE5050008150600084B
:1005DC009306000833070008FFF7C4FD0346012B00
:1005EC0040F0E18000220421844801F0FAFB002253
:1005FC004FF40051814801F0F4FB814B13221A6037
:10060C007D4B19221A60CEE0002208217B4801F0B4
:10061C00E8FB00224FF48041784801F0E2FB002215
:10062C001021764801F0DDFB00224FF400417348A5
:10063C0001F0D7FB01F066F8FFF794FD0346012BA0
:10064C0003D16D4B1A221A60AFE0FFF779FD034618
:10065C00012B09D16B4B1B6801336A4A13606A4B3F
:10066C001B680133684A1360FFF78EFD0346012BAC
:10067C0040F09B80634B1B68644A1360624B1B68A1
:10068C00634A136091E0002204215C4801F0A9FB4D
:10069C0000224FF40051594801F0A3FB0022102115
:1006AC00564801F09EFB00224FF40041534801F0E4
:1006BC0098FB01F03FF8FFF755FD0346012B03D1E2
:1006CC004D4B1B221A6072E0FFF73AFD0346012BDB
:1006DC0013D1504B1B6801334E4A13604E4B1B68B1
:1006EC0001334D4A1360474B1B680133454A136075
:1006FC004A4B1B680133494A1360FFF745FD03461B
:10070C00012B54D1434B1B68454A1360424B1B6869
:10071C00444A13603B4B1B683C4A13603F4B1B68BD
:10072C00414A136043E000220821344801F059FB90
:10073C0000224FF48041314801F053FB0022042188
:10074C002E4801F04EFB00224FF400512B4801F0D3
:10075C0048FB01F007F8FFF705FD0346012B03D119
:10076C00254B18221A6024E0FFF7EAFC0346012B04
:10077C0009D12E4B1B6801332C4A1360274B1B6885
:10078C000133264A1360FFF7FFFC0346012B10D1FF
:10079C00264B1B68264A1360204B1B68224A1360A9
:1007AC0007E000BF06E000BF04E000BF02E000BFAE
:1007BC0000E000BF1F4B1B68012B18D1322000F04A
:1007CC00F9FD1D4B1B68012B02DD1B4B00221A602F
:1007DC00194B1B68184600F083FB174B1B68184617
:1007EC0000F0B6FB144B1B680133134A136000F086
:1007FC0027FC00BF80BD00BF58000020000801404E
:10080C003C00002040000020540000205C00002030
:10081C0070000020480000204C0000204400002004
:10082C0064000020680000206000002050000020C0
:10083C006C000020CC000020C000002080B582B0ED
:10084C0000AF78607B68092B00F2B28101A252F8EC
:10085C0023F000BF89080008DB0800082D090008F8
:10086C007F090008D1090008230A0008750A00084E
:10087C00C70A0008190B00086B0B00080022402166
:10088C00CE4801F0AEFA00228021CC4801F0A9FA42
:10089C0000224FF48071C94801F0A3FA00224FF4F2
:1008AC000071C64801F09DFA00224FF48061C348E4
:1008BC0001F097FA00224FF40061C04801F091FA60
:1008CC0001224FF48051BD4801F08BFA71E10122F5
:1008DC004021BA4801F085FA00228021B74801F086
:1008EC0080FA00224FF48071B44801F07AFA0122A8
:1008FC004FF40071B14801F074FA01224FF4806199
:10090C00AE4801F06EFA01224FF40061AB4801F0E1
:10091C0068FA01224FF48051A84801F062FA48E1CC
:10092C0000224021A54801F05CFA00228021A34856
:10093C0001F057FA01224FF48071A04801F051FAEE
:10094C0000224FF400719D4801F04BFA00224FF445
:10095C0080619A4801F045FA01224FF400619748F2
:10096C0001F03FFA00224FF48051944801F039FA1B
:10097C001FE100224021914801F033FA002280212E
:10098C008E4801F02EFA00224FF480718B4801F052
:10099C0028FA00224FF40071884801F022FA012253
:1009AC004FF48061854801F01CFA01224FF400617C
:1009BC00824801F016FA00224FF480517F4801F072
:1009CC0010FAF6E0012240217C4801F00AFA0022DC
:1009DC0080217A4801F005FA00224FF480717748A3
:1009EC0001F0FFF901224FF40071744801F0F9F99C
:1009FC0001224FF48061714801F0F3F900224FF4A9
:100A0C0000616E4801F0EDF900224FF480516B4803
:100A1C0001F0E7F9CDE000224021684801F0E1F94E
:100A2C0001228021654801F0DCF900224FF480712D
:100A3C00624801F0D6F900224FF400715F4801F0D2
:100A4C00D0F901224FF480615C4801F0CAF9002210
:100A5C004FF40061594801F0C4F900224FF4805161
:100A6C00564801F0BEF9A4E000224021534801F0A1
:100A7C00B8F901228021514801F0B3F900224FF45A
:100A8C0080714E4801F0ADF900224FF400714B48D3
:100A9C0001F0A7F900224FF48061484801F0A1F958
:100AAC0000224FF40061454801F09BF900224FF4FD
:100ABC008051424801F095F97BE0002240213F48EB
:100ACC0001F08FF9002280213C4801F08AF90022C4
:100ADC004FF48071394801F084F901224FF4007110
:100AEC00364801F07EF901224FF48061334801F061
:100AFC0078F901224FF40061304801F072F90122BB
:100B0C004FF480512D4801F06CF952E00022402145
:100B1C002A4801F066F900228021284801F061F989
:100B2C0000224FF48071254801F05BF900224FF44C
:100B3C000071224801F055F900224FF480611F48E2
:100B4C0001F04FF900224FF400611C4801F049F903
:100B5C0000224FF48051194801F043F929E000229A
:100B6C004021164801F03DF900228021134801F084
:100B7C0038F900224FF48071104801F032F900224C
:100B8C004FF400710D4801F02CF901224FF48061F3
:100B9C000A4801F026F900224FF40061074801F0E1
:100BAC0020F900224FF48051044801F01AF900E0BA
:100BBC0000BF00BF0837BD4680BD00BF0008014024
:100BCC0080B582B000AF78607B68092B00F2808121
:100BDC0001A252F823F000BF0D0C0008550C0008C0
:100BEC009D0C0008E50C00082D0D0008750D000883
:100BFC00BD0D0008050E00084D0E0008950E0008EE
:100C0C0000220121B54801F0ECF800220221B34882
:100C1C0001F0E7F800220421B04801F0E2F80022CC
:100C2C000821AE4801F0DDF800221021AB4801F09C
:100C3C00D8F800222021A94801F0D3F80122402144
:100C4C00A64801F0CEF844E101220121A34801F0AD
:100C5C00C8F800220221A14801F0C3F800220421A7
:100C6C009E4801F0BEF8012208219C4801F0B9F819
:100C7C0001221021994801F0B4F801222021974853
:100C8C0001F0AFF801224021944801F0AAF820E1CC
:100C9C0000220121914801F0A4F8002202218F4882
:100CAC0001F09FF8012204218C4801F09AF80022EF
:100CBC0008218A4801F095F800221021874801F09C
:100CCC0090F801222021854801F08BF80022402168
:100CDC00824801F086F8FCE0002201217F4801F0F7
:100CEC0080F8002201217D4801F07BF800220421CC
:100CFC007A4801F076F800220821784801F071F862
:100D0C0001221021754801F06CF801222021734852
:100D1C0001F067F800224021704801F062F8D8E039
:100D2C00012201216D4801F05CF8002202216B4880
:100D3C0001F057F800220421684801F052F8012212
:100D4C000821664801F04DF801221021634801F09A
:100D5C0048F800222021614801F043F8002240218C
:100D6C005E4801F03EF8B4E0002201215B4801F03E
:100D7C0038F801220221594801F033F800220421ED
:100D8C00564801F02EF800220821544801F029F8A9
:100D9C0001221021514801F024F8002220214F4853
:100DAC0001F01FF8002240214C4801F01AF890E0A5
:100DBC0000220121494801F014F801220221474880
:100DCC0001F00FF800220421444801F00AF8002237
:100DDC000821424801F005F8002210213F4801F09B
:100DEC0000F8002220213D4800F0FBFF00224021AA
:100DFC003A4800F0F6FF6CE000220121374800F081
:100E0C00F0FF00220221354800F0EBFF0022042104
:100E1C00324800F0E6FF01220821304800F0E1FFE3
:100E2C00012210212D4800F0DCFF012220212B484B
:100E3C0000F0D7FF01224021284800F0D2FF48E003
:100E4C0000220121254800F0CCFF0022022123487A
:100E5C0000F0C7FF00220421204800F0C2FF00224E
:100E6C0008211E4800F0BDFF002210211B4800F095
:100E7C00B8FF00222021194800F0B3FF00224021C6
:100E8C00164800F0AEFF24E000220121134800F0C8
:100E9C00A8FF00220221114800F0A3FF0022042128
:100EAC000E4800F09EFF002208210C4800F099FF2C
:100EBC0001221021094800F094FF0022202107484C
:100ECC0000F08FFF00224021044800F08AFF00E070
:100EDC0000BF00BF0837BD4680BD00BF000C0140FD
:100EEC0080B582B000AF78607B68002B03D07B6844
:100EFC00012B12D023E000224FF40041124800F0E5
:100F0C0070FF01224FF480410F4800F06AFF0F4B35
:100F1C001B681846FFF792FC11E001224FF40041C8
:100F2C00094800F05EFF00224FF48041064800F0B3
:100F3C0058FF064B5B681846FFF780FC00BF00BFEC
:100F4C000837BD4680BD00BF000C01407400002076
:100F5C0080B582B000AF78607B68002B03D07B68D3
:100F6C00012B12D023E000224FF40051124800F064
:100F7C0038FF01224FF480510F4800F032FF0F4B25
:100F8C009B681846FFF71CFE11E001224FF400513C
:100F9C00094800F026FF00224FF48051064800F06B
:100FAC0020FF064BDB681846FFF70AFE00BF00BFA8
:100FBC000837BD4680BD00BF000C01407400002006
:100FCC0080B400AF1A4B1B681A4A82FB03129210B2
:100FDC00DB17D31A184A5360154B1968154B83FB52
:100FEC0001239A10CB17D21A13469B0013445B00B3
:100FFC00CA1A114B1A60114B1B680E4A82FB031262
:10100C009210DB17D31A0C4AD3600C4B1968094B9E
:10101C0083FB01239A10CB17D21A13469B0013445F
:10102C005B00CA1A044B9A6000BFBD4680BC704777
:10103C00AC0000206766666674000020B0000020DB
:10104C0080B400AF374B1B681B2B46D01B2B64DCCA
:10105C00192B02D01A2B20D05FE0334B1B68334A7C
:10106C0082FB03129210DB17D31A314A53602E4BBA
:10107C0019682E4B83FB01239A10CB17D21A1346F7
:10108C009B0013445B00CA1A294B1A60284B02229E
:10109C00DA60274B02229A6040E0264B1B68234AF9
:1010AC0082FB03129210DB17D31A214A5360214B97
:1010BC0019681E4B83FB01239A10CB17D21A1346C7
:1010CC009B0013445B00CA1A194B1A60184B03227D
:1010DC00DA60174B03229A6020E0174B1B68134A07
:1010EC0082FB03129210DB17D31A114A5360124B76
:1010FC0019680E4B83FB01239A10CB17D21A134697
:10110C009B0013445B00CA1A094B1A60084B04225B
:10111C00DA60074B04229A6000E000BF00BFBD46B6
:10112C0080BC70475800002040000020676666664F
:10113C0074000020480000205000002080B500AF53
:10114C0000F04EFB00F018F800F09EF800F050F89C
:10115C00084801F0A3FA642000F018F9322000F0DE
:10116C0029F9322000F03AF9FFF72EF9FFF720FAAF
:10117C00FAE700BFDC00002080B590B000AF07F1AB
:10118C00180328220021184601F038FE3B1D0022CE
:10119C001A605A609A60DA601A610223BB610123FB
:1011AC00BB621023FB6200237B6307F11803184614
:1011BC0000F048FE0346002B01D000F0E1F80F23AD
:1011CC007B600023BB600023FB6000233B6100239A
:1011DC007B613B1D0021184601F0B4F80346002B3F
:1011EC0001D000F0CDF800BF4037BD4680BD0000F7
:1011FC0080B586B000AF07F1080300221A605A6070
:10120C009A60DA603B4600221A605A601D4B4FF020
:10121C0080421A601B4B41F63F725A60194B0022F8
:10122C009A60184B0922DA60164B00221A61154B92
:10123C0000229A61134801F0E1F90346002B01D01A
:10124C0000F09EF84FF48053BB6007F10803194679
:10125C000C4801F05FFB0346002B01D000F090F826
:10126C0000233B6000237B603B461946054801F098
:10127C0037FD0346002B01D000F082F800BF183771
:10128C00BD4680BDDC00002080B588B000AF07F102
:10129C00100300221A605A609A60DA602F4B9B6927
:1012AC002E4A43F0100393612C4B9B6903F01003FF
:1012BC00FB60FB68294B9B69284A43F0040393614C
:1012CC00264B9B6903F00403BB60BB68234B9B69F3
:1012DC00224A43F008039361204B9B6903F00803F7
:1012EC007B607B6800224FF6FC711D4800F079FD95
:1012FC0000224FF27F011B4800F073FD4FF4604356
:10130C003B6100237B610123BB6107F1100319468C
:10131C00154800F0D5FB4FF6FC733B6101237B6154
:10132C000023BB610223FB6107F1100319460C4833
:10133C0000F0C6FB4FF27F033B6101237B6100236E
:10134C00BB610223FB6107F110031946054800F04D
:10135C00B7FB00BF2037BD4680BD00BF0010024068
:10136C0000080140000C01400010014080B582B023
:10137C0000AF786000F088F800BF0837BD4680BD2C
:10138C0080B400AF72B600BFFEE7000080B483B03B
:10139C0000AF7860054B00221A60054A7B68136029
:1013AC0000BF0C37BD4680BC704700BFC400002096
:1013BC00C800002080B483B000AF7860054B0022D9
:1013CC001A60054A7B68136000BF0C37BD4680BCB1
:1013DC00704700BFCC000020D000002080B483B048
:1013EC0000AF7860054B00221A60054A7B681360D9
:1013FC0000BF0C37BD4680BC704700BFD400002036
:10140C00D800002080B400AF194B1B68002B0BDDFB
:10141C00174B1B68013B164A1360154B1B68002BBE
:10142C0002DC144B01221A60134B1B68002B0BDDE2
:10143C00114B1B68013B104A13600F4B1B68002BB0
:10144C0002DC0E4B01221A600D4B1B68002B0BDDCE
:10145C000B4B1B68013B0A4A1360094B1B68002BA2
:10146C0002DC084B01221A6000BFBD4680BC7047ED
:10147C00C8000020C4000020D0000020CC000020B8
:10148C00D8000020D400002080B500AFFFF7BAFFD1
:10149C00FEF78CFEFEF7D8FEFEF724FF00BF80BDE2
:1014AC0080B485B000AF154B9B69144A43F001031F
:1014BC009361124B9B6903F00103BB60BB680F4B3C
:1014CC00DB690E4A43F08053D3610C4BDB6903F0AC
:1014DC0080537B607B680A4B5B68FB60FB6823F086
:1014EC00E063FB60FB6843F08063FB60044AFB68CD
:1014FC00536000BF1437BD4680BC704700100240DB
:10150C000000014080B584B000AF78607B681B6838
:10151C00B3F1804F13D10C4BDB690B4A43F0010341
:10152C00D361094BDB6903F00103FB60FB6800220C
:10153C0000211C2000F08DFA1C2000F0A6FA00BF40
:10154C001037BD4680BD00BF0010024080B400AF14
:10155C00FEE780B400AFFEE780B400AFFEE780B4D6
:10156C0000AFFEE780B400AFFEE780B400AF00BF71
:10157C00BD4680BC704780B400AF00BFBD4680BC88
:10158C00704780B400AF00BFBD4680BC704780B5CB
:10159C0000AF00F06BF900BF80BD000080B500AF5C
:1015AC00024801F0C7F800BF80BD00BFDC0000207E
:1015BC0080B400AF00BFBD4680BC704780B582B020
:1015CC0000AF78607B68143B032B00F2938001A280
:1015DC0052F823F0F11500083516000879160008AA
:1015EC00BD16000801220421454800F0FAFB002238
:1015FC000821434800F0F5FB00221021404800F080
:10160C00F0FB00224FF400513D4800F0EAFB0022B1
:10161C004FF480413A4800F0E4FB01224FF40041C2
:10162C00374800F0DEFB66E001220421344800F06C
:10163C00D8FB00220821324800F0D3FB00221021F5
:10164C002F4800F0CEFB00224FF400512C4800F044
:10165C00C8FB01224FF48041294800F0C2FB002254
:10166C004FF40041264800F0BCFB44E0002204216A
:10167C00234800F0B6FB00220821214800F0B1FB02
:10168C00012210211E4800F0ACFB01224FF4005146
:10169C001B4800F0A6FB00224FF48041184800F0D4
:1016AC00A0FB00224FF40041154800F09AFB22E009
:1016BC0000220421124800F094FB0122082110485A
:1016CC0000F08FFB002210210D4800F08AFB012254
:1016DC004FF400510A4800F084FB00224FF4804183
:1016EC00074800F07EFB00224FF40041044800F054
:1016FC0078FB00E000BF00BF0837BD4680BD00BFCF
:10170C000008014080B500AF084B1B68012B0BD1C2
:10171C003220FFF763FE0421054800F07AFB4FF4FA
:10172C000051034800F075FB00BF80BDD4000020C1
:10173C000008014080B500AF084B1B68012B0BD192
:10174C003220FFF74BFE0821054800F062FB4FF4F6
:10175C008041034800F05DFB00BF80BDD400002039
:10176C000008014080B500AF084B1B68012B0BD162
:10177C003220FFF733FE1021054800F04AFB4FF4EE
:10178C000041034800F045FB00BF80BDD4000020A1
:10179C0000080140FFF70CFF0B480C490C4A0023D2
:1017AC0002E0D458C4500433C4188C42F9D3094A0B
:1017BC00094C002301E013600432A242FBD301F078
:1017CC00F9FAFFF7BBFC70470000002090000020E6
:1017DC005C2E00089000002028010020FEE700008D
:1017EC0080B500AF084B1B68074A43F01003136029
:1017FC00032000F023F90F2000F008F8FFF750FE4B
:10180C000023184680BD00BF0020024080B582B086
:10181C0000AF7860124B1A68124B1B7819464FF4C4
:10182C007A73B3FBF1F3B2FBF3F3184600F03BF918
:10183C000346002B01D001230EE07B680F2B0AD846
:10184C00002279684FF0FF3000F003F9064A7B68FC
:10185C001360002300E0012318460837BD4680BD05
:10186C00840000208C0000208800002080B400AF91
:10187C00054B1B781A46054B1B681344034A13602F
:10188C0000BFBD4680BC70478C00002024010020A6
:10189C0080B400AF024B1B681846BD4680BC704735
:1018AC002401002080B485B000AF78607B6803F021
:1018BC000703FB600C4BDB68BB60BA684FF6FF0399
:1018CC001340BB60FB681A02BB68134343F0BF6351
:1018DC0043F40033BB60044ABB68D36000BF1437C9
:1018EC00BD4680BC704700BF00ED00E080B400AF87
:1018FC00044BDB681B0A03F007031846BD4680BC8B
:10190C00704700BF00ED00E080B483B000AF034629
:10191C00FB7197F90730002B0BDBFB7903F01F02EF
:10192C00064997F907305B09012000FA02F241F8E9
:10193C00232000BF0C37BD4680BC704700E100E09F
:10194C0080B483B000AF03463960FB7197F9073060
:10195C00002B0ADB3B68DAB20C4997F9073012010D
:10196C00D2B20B4483F800230AE03B68DAB2084990
:10197C00FB7903F00F03043B1201D2B20B441A762D
:10198C0000BF0C37BD4680BC704700BF00E100E0D3
:10199C0000ED00E080B489B000AFF860B9607A6007
:1019AC00FB6803F00703FB61FB69C3F10703042B1E
:1019BC0028BF0423BB61FB690433062B02D9FB69E6
:1019CC00033B00E000237B614FF0FF32BB6902FA5E
:1019DC0003F3DA43BB681A407B699A404FF0FF313E
:1019EC007B6901FA03F3D9437B680B401343184618
:1019FC002437BD4680BC704780B582B000AF78609C
:101A0C007B68013BB3F1807F01D301230FE00A4ACD
:101A1C007B68013B53600F214FF0FF30FFF790FFC5
:101A2C00054B00229A60044B07221A6000231846CB
:101A3C000837BD4680BD00BF10E000E080B582B025
:101A4C0000AF78607868FFF72DFF00BF0837BD4600
:101A5C0080BD80B586B000AF0346B9607A60FB7379
:101A6C0000237B61FFF742FF78617A68B968786977
:101A7C00FFF790FF024697F90F3011461846FFF713
:101A8C005FFF00BF1837BD4680BD80B582B000AF88
:101A9C000346FB7197F907301846FFF735FF00BF77
:101AAC000837BD4680BD80B582B000AF78607868DD
:101ABC00FFF7A2FF034618460837BD4680BD00005D
:101ACC0080B48BB000AF7860396000237B62002358
:101ADC003B6248E101227B6A02FA03F3FB613B683B
:101AEC001B68FA691340BB61BA69FB699A4240F002
:101AFC0037813B685B68A34A93425ED0A14A93420C
:101B0C0075D8A14A934258D09F4A93426FD89F4AA6
:101B1C00934252D09D4A934269D89D4A93424CD0ED
:101B2C009B4A934263D89B4A934246D0994A93422C
:101B3C005DD8122B2AD8122B59D801A252F823F0B7
:101B4C00C71B0008A11B0008B31B0008F51B0008ED
:101B5C00FB1B0008FB1B0008FB1B0008FB1B000801
:101B6C00FB1B0008FB1B0008FB1B0008FB1B0008F1
:101B7C00FB1B0008FB1B0008FB1B0008FB1B0008E1
:101B8C00FB1B0008A91B0008BD1B0008824A9342DE
:101B9C0013D02CE03B68DB683B6229E03B68DB68D8
:101BAC0004333B6224E03B68DB6808333B621FE094
:101BBC003B68DB680C333B621AE03B689B68002B8C
:101BCC0002D104233B6213E03B689B68012B05D1D7
:101BDC0008233B627B68FA691A6109E008233B62BF
:101BEC007B68FA695A6103E000233B6200E000BFA6
:101BFC00BB69FF2B01D87B6801E07B6804337B61F8
:101C0C00BB69FF2B02D87B6A9B0002E07B6A083B16
:101C1C009B003B617B691A680F213B6901FA03F356
:101C2C00DB431A40396A3B6901FA03F31A437B69B7
:101C3C001A603B685B6803F08053002B00F09080C7
:101C4C00564B9B69554A43F001039361534B9B6977
:101C5C0003F00103BB60BB68514A7B6A9B080233EB
:101C6C0052F82330FB607B6A03F003039B000F22C6
:101C7C0002FA03F3DB43FA681340FB607B68494AC2
:101C8C0093420DD07B68484A934207D07B68474A01
:101C9C00934201D1022304E0032302E0012300E07C
:101CAC0000237A6A02F0030292009340FA6813430D
:101CBC00FB603B497B6A9B080233FA6841F823209E
:101CCC003B685B6803F48013002B06D0384B9A6892
:101CDC003749BB6913438B6006E0354B9A68BB6987
:101CEC00DB43334913408B603B685B6803F40013A0
:101CFC00002B06D02E4BDA682D49BB691343CB6001
:101D0C0006E02B4BDA68BB69DB4329491340CB60F7
:101D1C003B685B6803F40033002B06D0244B5A68F5
:101D2C002349BB6913434B6006E0214B5A68BB69DE
:101D3C00DB431F4913404B603B685B6803F4803303
:101D4C00002B06D01A4B1A681949BB6913430B6058
:101D5C0006E0174B1A68BB69DB43154913400B604F
:101D6C007B6A01337B623B681A687B6A22FA03F355
:101D7C00002B7FF4AFAE00BF00BF2C37BD4680BC3C
:101D8C00704700BF0000321000003110000022101C
:101D9C000000211000001210000011100010024071
:101DAC000000014000080140000C014000100140FF
:101DBC000004014080B485B000AF78600B467B8096
:101DCC007B689A687B881340002B02D00123FB733D
:101DDC0001E00023FB73FB7B18461437BD4680BC27
:101DEC00704780B483B000AF78600B467B8013469D
:101DFC007B707B78002B03D07A887B681A6103E0B8
:101E0C007B881A047B681A6100BF0C37BD4680BC06
:101E1C00704780B485B000AF78600B467B807B68E0
:101E2C00DB68FB607A88FB6813401A04FB68D943B3
:101E3C007B880B401A437B681A6100BF1437BD4680
:101E4C0080BC704780B586B000AF78607B68002B93
:101E5C0001D101236CE27B681B6803F00103002BAA
:101E6C0000F08780924B5B6803F00C03042B0CD0C2
:101E7C008F4B5B6803F00C03082B12D18C4B5B6807
:101E8C0003F48033B3F5803F0BD1894B1B6803F40B
:101E9C000033002B6CD07B685B68002B68D101236E
:101EAC0046E27B685B68B3F5803F06D1804B1B68CC
:101EBC007F4A43F4803313602EE07B685B68002B11
:101ECC000CD17B4B1B687A4A23F480331360784B1C
:101EDC001B68774A23F4802313601DE07B685B68E2
:101EEC00B3F5A02F0CD1724B1B68714A43F48023BD
:101EFC0013606F4B1B686E4A43F4803313600BE026
:101F0C006B4B1B686A4A23F480331360684B1B6865
:101F1C00674A23F4802313607B685B68002B13D023
:101F2C00FFF7B6FC386108E0FFF7B2FC02463B69EC
:101F3C00D31A642B01D90323FAE15D4B1B6803F41C
:101F4C000033002BF0D014E0FFF7A2FC386108E05E
:101F5C00FFF79EFC02463B69D31A642B01D903237D
:101F6C00E6E1534B1B6803F40033002BF0D100E087
:101F7C0000BF7B681B6803F00203002B63D04C4B43
:101F8C005B6803F00C03002B0BD0494B5B6803F030
:101F9C000C03082B1CD1464B5B6803F48033002BDD
:101FAC0016D1434B1B6803F00203002B05D07B6852
:101FBC001B69012B01D00123BAE13D4B1B6823F0B7
:101FCC00F8027B685B69DB00394913430B603AE02C
:101FDC007B681B69002B20D0364B01221A60FFF75F
:101FEC0057FC386108E0FFF753FC02463B69D31AF3
:101FFC00022B01D903239BE12D4B1B6803F0020339
:10200C00002BF0D02A4B1B6823F0F8027B685B692D
:10201C00DB00274913430B6015E0264B00221A60A6
:10202C00FFF736FC386108E0FFF732FC02463B69EB
:10203C00D31A022B01D903237AE11D4B1B6803F041
:10204C000203002BF0D17B681B6803F00803002B04
:10205C003AD07B689B69002B19D0174B01221A6070
:10206C00FFF716FC386108E0FFF712FC02463B69EB
:10207C00D31A022B01D903235AE10D4B5B6A03F0EF
:10208C000203002BF0D0012000F09AFA1CE00A4B5E
:10209C0000221A60FFF7FCFB38610FE0FFF7F8FB3A
:1020AC0002463B69D31A022B08D9032340E100BF37
:1020BC000010024000004242800442429E4B5B6A88
:1020CC0003F00203002BE9D17B681B6803F00403C7
:1020DC00002B00F0A6800023FB75974BDB6903F007
:1020EC008053002B0DD1944BDB69934A43F0805302
:1020FC00D361914BDB6903F08053BB60BB68012358
:10210C00FB758E4B1B6803F48073002B18D18B4B23
:10211C001B688A4A43F480731360FFF7B9FB38617C
:10212C0008E0FFF7B5FB02463B69D31A642B01D9D3
:10213C000323FDE0814B1B6803F48073002BF0D06C
:10214C007B68DB68012B06D17B4B1B6A7A4A43F018
:10215C00010313622DE07B68DB68002B0CD1764BFE
:10216C001B6A754A23F001031362734B1B6A724A94
:10217C0023F0040313621CE07B68DB68052B0CD195
:10218C006D4B1B6A6C4A43F0040313626A4B1B6A67
:10219C00694A43F0010313620BE0674B1B6A664A02
:1021AC0023F001031362644B1B6A634A23F004039C
:1021BC0013627B68DB68002B15D0FFF769FB386175
:1021CC000AE0FFF765FB02463B69D31A41F28832FD
:1021DC00934201D90323ABE0574B1B6A03F0020374
:1021EC00002BEED014E0FFF753FB38610AE0FFF749
:1021FC004FFB02463B69D31A41F28832934201D914
:10220C00032395E04C4B1B6A03F00203002BEED129
:10221C00FB7D012B05D1484BDB69474A23F08053EA
:10222C00D3617B68DB69002B00F08180424B5B68DB
:10223C0003F00C03082B61D07B68DB69022B46D1C1
:10224C003F4B00221A60FFF723FB386108E0FFF7D1
:10225C001FFB02463B69D31A022B01D9032367E00B
:10226C00354B1B6803F00073002BF0D17B681B6AA5
:10227C00B3F5803F08D1304B5B6823F400327B68A8
:10228C009B682D4913434B602B4B5B6823F47412F2
:10229C007B68196A7B685B6A0B43274913434B6065
:1022AC00274B01221A60FFF7F3FA386108E0FFF7B9
:1022BC00EFFA02463B69D31A022B01D9032337E00C
:1022CC001D4B1B6803F00073002BF0D02FE01C4B50
:1022DC0000221A60FFF7DCFA386108E0FFF7D8FA41
:1022EC0002463B69D31A022B01D9032320E0124B7F
:1022FC001B6803F00073002BF0D118E07B68DB69DE
:10230C00012B01D1012313E00B4B5B68FB60FB68D5
:10231C0003F480327B681B6A9A4206D1FB6803F493
:10232C0070127B685B6A9A4201D0012300E00023A3
:10233C0018461837BD4680BD0010024000700040A2
:10234C006000424280B584B000AF786039607B6831
:10235C00002B01D10123D0E06A4B1B6803F007036B
:10236C003A689A4210D9674B1B6823F007026549FB
:10237C003B6813430B60634B1B6803F007033A681D
:10238C009A4201D00123B8E07B681B6803F002037A
:10239C00002B20D07B681B6803F00403002B05D0B6
:1023AC00594B5B68584A43F4E06353607B681B6885
:1023BC0003F00803002B05D0534B5B68524A43F4DF
:1023CC0060535360504B5B6823F0F0027B689B6852
:1023DC004D4913434B607B681B6803F00103002BD2
:1023EC0040D07B685B68012B07D1474B1B6803F41B
:1023FC000033002B15D101237FE07B685B68022B37
:10240C0007D1414B1B6803F00073002B09D101234A
:10241C0073E03D4B1B6803F00203002B01D1012339
:10242C006BE0394B5B6823F003027B685B683649D1
:10243C0013434B60FFF72CFAF8600AE0FFF728FA19
:10244C000246FB68D31A41F28832934201D9032326
:10245C0053E02D4B5B6803F00C027B685B689B00C0
:10246C009A42EBD1274B1B6803F007033A689A4258
:10247C0010D2244B1B6823F0070222493B681343FC
:10248C000B60204B1B6803F007033A689A4201D09B
:10249C00012332E07B681B6803F00403002B08D097
:1024AC00194B5B6823F4E0627B68DB6816491343C5
:1024BC004B607B681B6803F00803002B09D0124BA0
:1024CC005B6823F460527B681B69DB000E49134385
:1024DC004B6000F021F802460B4B5B681B0903F0C4
:1024EC000F030A49CB5C22FA03F3094A1360094B28
:1024FC001B681846FFF78AF9002318461037BD46AB
:10250C0080BD00BF0020024000100240302E0008A9
:10251C00840000208800002080B487B000AF002326
:10252C00FB600023BB6000237B6100237B600023E6
:10253C003B611E4B5B68FB60FB6803F00C03042BD8
:10254C0002D0082B03D027E0194B3B6127E0FB6836
:10255C009B0C03F00F03174AD35C7B60FB6803F4FE
:10256C008033002B10D0114B5B685B0C03F0010324
:10257C00114AD35CBB607B680D4A02FB03F2BB685B
:10258C00B2FBF3F37B6104E07B680C4A02FB03F3C0
:10259C007B617B693B6102E0054B3B6100BF3B69A2
:1025AC0018461C37BD4680BC704700BF0010024067
:1025BC0000127A00402E0008502E000800093D0041
:1025CC0080B485B000AF78600A4B1B680A4AA2FB46
:1025DC0003235B0A7A6802FB03F3FB6000BFFB6812
:1025EC005A1EFA60002BF9D100BF00BF1437BD464C
:1025FC0080BC704784000020D34D621080B582B03F
:10260C0000AF78607B68002B01D1012341E07B682F
:10261C0093F83D30DBB2002B06D17B68002283F8A7
:10262C003C207868FEF76EFF7B68022283F83D2021
:10263C007B681A687B6804331946104600F056FA1A
:10264C007B68012283F846207B68012283F83E20B8
:10265C007B68012283F83F207B68012283F84020AD
:10266C007B68012283F841207B68012283F8422099
:10267C007B68012283F843207B68012283F8442085
:10268C007B68012283F845207B68012283F83D207A
:10269C00002318460837BD4680BD000080B485B0C5
:1026AC0000AF78607B6893F83D30DBB2012B01D032
:1026BC00012335E07B68022283F83D207B681B6890
:1026CC00DA687B681B6842F00102DA607B681B6881
:1026DC00164A934209D07B681B68B3F1804F04D033
:1026EC007B681B68124A934211D17B681B689B68FC
:1026FC0003F00703FB60FB68062B10D07B681B689C
:10270C001A687B681B6842F001021A6007E07B685C
:10271C001B681A687B681B6842F001021A60002370
:10272C0018461437BD4680BC704700BF002C0140D2
:10273C000004004080B584B000AF78607B681B68F3
:10274C00DB68FB607B681B681B69BB60BB6803F0C4
:10275C000203002B20D0FB6803F00203002B1BD0DC
:10276C007B681B686FF002021A617B6801221A7782
:10277C007B681B689B6903F00303002B03D078680C
:10278C0000F098F905E0786800F08BF9786800F0B3
:10279C009AF97B6800221A77BB6803F00403002BBC
:1027AC0020D0FB6803F00403002B1BD07B681B6854
:1027BC006FF004021A617B6802221A777B681B682F
:1027CC009B6903F44073002B03D0786800F072F916
:1027DC0005E0786800F065F9786800F074F97B68BA
:1027EC0000221A77BB6803F00803002B20D0FB688B
:1027FC0003F00803002B1BD07B681B686FF00802EA
:10280C001A617B6804221A777B681B68DB6903F00A
:10281C000303002B03D0786800F04CF905E07868CE
:10282C0000F03FF9786800F04EF97B6800221A77C7
:10283C00BB6803F01003002B20D0FB6803F01003DF
:10284C00002B1BD07B681B686FF010021A617B6831
:10285C0008221A777B681B68DB6903F44073002B32
:10286C0003D0786800F026F905E0786800F019F9D3
:10287C00786800F028F97B6800221A77BB6803F0AF
:10288C000103002B0CD0FB6803F00103002B07D0D5
:10289C007B681B686FF001021A617868FEF766FDB1
:1028AC00BB6803F08003002B0CD0FB6803F08003A3
:1028BC00002B07D07B681B686FF080021A61786868
:1028CC0000F06FFABB6803F04003002B0CD0FB68E0
:1028DC0003F04003002B07D07B681B686FF04002AD
:1028EC001A61786800F0F8F8BB6803F02003002B3D
:1028FC000CD0FB6803F02003002B07D07B681B680F
:10290C006FF020021A61786800F042FA00BF1037AD
:10291C00BD4680BD80B584B000AF786039600023BF
:10292C00FB737B6893F83C30012B01D10223B4E09C
:10293C007B68012283F83C207B68022283F83D20CF
:10294C007B681B689B68BB60BB6823F07703BB602C
:10295C00BB6823F47F43BB607B681B68BA689A60D2
:10296C003B681B68B3F5005F3ED0B3F5005F00F227
:10297C008780B3F5805F00F08680B3F5805F7FD8E9
:10298C00702B1AD0702B7BD8602B50D0602B77D843
:10299C00502B3CD0502B73D8402B58D0402B6FD899
:1029AC00302B64D0302B6BD8202B60D0202B67D8E9
:1029BC00002B5CD0102B5AD062E07B6818683B6807
:1029CC0099683B685A683B68DB6800F06AF97B6879
:1029DC001B689B68BB60BB6843F07703BB607B687C
:1029EC001B68BA689A604FE07B6818683B68996806
:1029FC003B685A683B68DB6800F053F97B681B68DE
:102A0C009A687B681B6842F480429A603CE07B6861
:102A1C0018683B6859683B68DB681A4600F0CAF8CE
:102A2C007B681B685021184600F021F92CE07B686C
:102A3C0018683B6859683B68DB681A4600F0E8F890
:102A4C007B681B686021184600F011F91CE07B685C
:102A5C0018683B6859683B68DB681A4600F0AAF8AE
:102A6C007B681B684021184600F001F90CE07B687C
:102A7C001A683B681B681946104600F0F8F803E02A
:102A8C000123FB7300E000BF7B68012283F83D202B
:102A9C007B68002283F83C20FB7B18461037BD4630
:102AAC0080BD80B483B000AF786000BF0C37BD46EA
:102ABC0080BC704780B483B000AF786000BF0C3727
:102ACC00BD4680BC704780B483B000AF786000BF57
:102ADC000C37BD4680BC704780B483B000AF7860C3
:102AEC0000BF0C37BD4680BC7047000080B485B079
:102AFC0000AF786039607B681B68FB607B682B4A91
:102B0C00934207D07B68B3F1804F03D07B68284A8F
:102B1C00934208D1FB6823F07003FB603B685B6851
:102B2C00FA681343FB607B68204A934207D07B68AA
:102B3C00B3F1804F03D07B681D4A934208D1FB68E8
:102B4C0023F44073FB603B68DB68FA681343FB605B
:102B5C00FB6823F080023B685B691343FB607B6876
:102B6C00FA681A603B689A687B68DA623B681A6894
:102B7C007B689A627B680D4A934203D13B681A6961
:102B8C007B681A637B6801225A617B681B6903F0BE
:102B9C000103002B05D07B681B6923F001027B68C5
:102BAC001A6100BF1437BD4680BC7047002C014031
:102BBC000004004080B487B000AFF860B9607A6060
:102BCC00FB681B6A7B61FB681B6A23F00102FB68D4
:102BDC001A62FB689B693B613B6923F0F0033B6124
:102BEC007B681B013A6913433B617B6923F00A0341
:102BFC007B617A69BB6813437B61FB683A699A61B4
:102C0C00FB687A691A6200BF1C37BD4680BC7047EE
:102C1C0080B487B000AFF860B9607A60FB681B6A5B
:102C2C007B61FB681B6A23F01002FB681A62FB686D
:102C3C009B693B613B6923F470433B617B681B03DD
:102C4C003A6913433B617B6923F0A0037B61BB684A
:102C5C001B017A6913437B61FB683A699A61FB68D3
:102C6C007A691A6200BF1C37BD4680BC704780B4BD
:102C7C0085B000AF786039607B689B68FB60FB684F
:102C8C0023F07003FB603A68FB68134343F00703BF
:102C9C00FB607B68FA689A6000BF1437BD4680BC45
:102CAC00704780B487B000AFF860B9607A603B6061
:102CBC00FB689B687B617B6923F47F437B613B688A
:102CCC001A027B681A43BB6813437A6913437B610E
:102CDC00FB687A699A6000BF1C37BD4680BC7047A0
:102CEC0080B485B000AF786039607B6893F83C3075
:102CFC00012B01D1022341E07B68012283F83C20A7
:102D0C007B68022283F83D207B681B685B68FB6054
:102D1C007B681B689B68BB60FB6823F07003FB60DF
:102D2C003B681B68FA681343FB607B681B68FA6896
:102D3C005A607B681B68144A934209D07B681B68F5
:102D4C00B3F1804F04D07B681B68104A93420CD1BE
:102D5C00BB6823F08003BB603B685B68BA681343B5
:102D6C00BB607B681B68BA689A607B68012283F839
:102D7C003D207B68002283F83C2000231846143742
:102D8C00BD4680BC704700BF002C014000040040D1
:102D9C0080B483B000AF786000BF0C37BD4680BCF8
:102DAC00704780B483B000AF786000BF0C37BD466D
:102DBC0080BC704770B500260C4D0D4C641BA410E4
:102DCC00A64209D100F022F800260A4D0A4C641BD9
:102DDC00A410A64205D170BD55F8043B98470136A6
:102DEC00EEE755F8043B98470136F2E7542E0008FD
:102DFC00542E0008542E0008582E00080346024496
:102E0C00934200D1704703F8011BF9E7F8B500BFF6
:102E1C00F8BC08BC9E467047F8B500BFF8BC08BCAF
:042E2C009E46704707
:102E3000000000000000000001020304060708096A
:102E400002030405060708090A0B0C0D0E0F1010EB
:042E5000010200007B
:042E54003101000840
:042E58000D01000860
:102E5C000100000001000000010000000100000062
:102E6C000100000001000000010000000100000052
:102E7C000100000001000000010000000100000042
:102E8C00C8000000C8000000C800000013000000CB
:102E9C000700000007000000020000000200000014
:102EAC0005000000050000001800000007000000ED
:102EBC0007000000020000000200000005000000F6
:102ECC0005000000010000000200000003000000EB
:102EDC000400000000127A00100000000100000045
:04000005080017A137
:00000001FF
